:1000000072C000008BC0000089C0000087C00000E3
:1000100085C0000083C0000081C000007FC00000D8
:100020007DC000007BC0000079C0000077C00000E8
:1000300006C3000073C0000071C000006FC0000064
:100040006DC000006BC000009CC0000067C00000D5
:1000500065C0000063C0000061C000005FC0000018
:100060005DC000005BC0000059C0000057C0000028
:1000700055C0000053C0000051C000004FC0000038
:100080004DC000004BC0000049C0000047C0000048
:1000900045C0000043C0000041C000003FC0000058
:1000A0003DC000003BC0000039C00000B522313225
:1000B00000E803E200DF00CA00BB00B32259900150
:1000C000983AE200DF00AC000000B12209140020E1
:1000D0004EDC00D9000000AC006D41007541006DA0
:1000E00073007573000011241FBECFEFCDBFDFE298
:1000F000DEBF12E2A0E0B0E2E4EFFDE002C0059056
:100100000D92A83CB107D9F722E2A8ECB2E201C0F7
:100110001D92A63DB207E1F72FD26AC671CFE0E08B
:10012000F6E08BE782838093B00082E1808B87E0EA
:10013000828B08958091C822E82FF0E09091080604
:10014000E753FD4D90838F5F8A3019F08093C8226A
:1001500008951092C822089580E090E02FEFFC01EE
:10016000E753FD4D3081232301968A309105B9F77D
:1001700090E08FEF20FD892F26959F5F9630D1F775
:1001800008951F920F920FB60F9211242F933F9351
:100190004F935F936F937F938F939F93AF93BF938F
:1001A000EF93FF93C7DFE0E4F8E084858160848704
:1001B000FF91EF91BF91AF919F918F917F916F913F
:1001C0005F914F913F912F910F900FBE0F901F9015
:1001D0001895CF92DF92FF920F931F93CF93DF93E7
:1001E00000D0CDB7DEB789839A83E0D48981C82E49
:1001F0009A81D92ED601ED916D01EE23C1F0EF3732
:10020000C9F3EE0FFF0BED54FE4D00811181FF2469
:10021000F394D8018C918F1538F0F801EF0DF11D92
:100220008081DDD4F394F5CF80E0D9D4E3CF0F9073
:100230000F90DF91CF911F910F91FF90DF90CF90A2
:10024000BCC4CF92DF92FF920F931F93CF93DF93A3
:1002500000D0CDB7DEB789839A83A8D48981E82FEF
:100260009A81F92F84918823F1F08F010F5F1F4F3E
:1002700090819F37B1F0E82FEE0FFF0BED54FE4D4C
:10028000C080D180FF24F394D6018C918F1538F073
:10029000F601EF0DF11D8081A2D4F394F5CF80E03B
:1002A0009ED4F801DFCF0F900F90DF91CF911F9177
:1002B0000F91FF90DF90CF9080C41F93CF93DF9377
:1002C0001F92CDB7DEB7162F8983ECD46FE78981F3
:1002D00002D567E0812F0F90DF91CF911F91E6C487
:1002E000CF93DF9300D000D0CDB7DEB72C834B8304
:1002F0006A838983D7D46A818981EDD42C81622F66
:100300004B81842F2496CDBFDEBFDF91CF91CEC429
:10031000EF92FF921F93CF93DF931F92CDB7DEB77B
:10032000898344D48981E82FF0E0EE0FFF1FE75165
:10033000FE4DE080F18011E0F7018081811738F0F7
:10034000F701E10FF11D80814AD41F5FF5CF80E0F6
:1003500046D40F90DF91CF911F91FF90EF902DC465
:10036000CF92DF92FF920F931F93CF93DF9300D032
:100370001F92CDB7DEB7182FF62E4A8329839B83B1
:1003800091D4602F8981A7D44A81642F8F2D8ED478
:100390000DD4C12E9B81D92ED601ED916D01EE2396
:1003A000C1F0EF37C9F3EE0FFF0BED54FE4D0081A6
:1003B0001181FF24F394D8018C918F1538F0F80146
:1003C000EF0DF11D80810BD4F394F5CF80E007D4BD
:1003D000E3CF2396CDBFDEBFDF91CF911F910F9169
:1003E000FF90DF90CF90E9C30F931F93CF93DF93DC
:1003F000182F062FC42FD22F73DF602F70E0611BE0
:1004000071096F5F7F4F2D2F30E02C1B31092F5F5B
:100410003F4F629FE001639FD00D729FD00D11246A
:10042000C5D3CF3F8FEFD80721F080E0D8D32197F5
:10043000F8CFDF91CF911F910F91BFC327E040E02C
:100440006FE780E0D1CFE0E0F6E084E0818390E1E7
:10045000928BE0E0F3E0118212828083089588EDB0
:1004600084BF809150008160809350008091510042
:1004700080FFFCCF88ED84BF1092400084BF809144
:100480005000857E809350008091B4008093B4002A
:100490000895E0E4F8E0118283E0808384EC99E041
:1004A00086A397A381E08683A0EAB0E012968C91A0
:1004B0001297816012968C931297E0E0F8E0118217
:1004C00010828FEF9FEF86A397A380E2818782E05F
:1004D000868312968C911297826012968C9308955F
:1004E0000F932091B1223091B222AFEFBFE03ED402
:1004F00020E23EE440E050E017D42093D322309332
:10050000D42280ECE0E0F6E0858383EC99E001976B
:10051000F1F700C0000080E8868383EC99E0019742
:10052000F1F700C000008ADF0FE72EE141E061E053
:100530008BEB92E215DF81E0AAD321E02093B72272
:10054000E0E0F3E08081816080838091D32290910C
:10055000D422808F918FE0E0F8E0208310A211A2D6
:100560008091B5229091B622880F991F86A397A3F8
:1005700080E280870F910895CF93DF931F92CDB7CC
:10058000DEB761DF6CDF85DFCADDF6D240D356DF30
:1005900081E818D38EE116D3E1D2789400E010E020
:1005A000C12CD12C2FEF2983D7DDF82E29812813D8
:1005B00025C08FEFC81AD80AE0EACE16EFE0DE06B3
:1005C00071F0F0E8CF16FEE3DF0661F088EAC816A6
:1005D00081E6D80651F0C114D104A1F008C00CED99
:1005E00015E005C000E911E002C008EC10E0C6010A
:1005F000B80186D3892B31F02F2DD5CF08EE1DEF12
:10060000C12CD12CE3E0FE1699F0EF1538F0FF2055
:1006100089F0F1E0FF12F0CF99D1EECF84E0F81627
:1006200059F0E5E0FE12E8CF253031F359DFE4CF91
:1006300057D1E2CF80E001C081E0BED1DDCF1F9273
:100640000F920FB60F9211242F933F934F935F9306
:100650006F937F938F939F93AF93BF93EF93FF938A
:100660008091B722823049F180F4813009F04EC088
:10067000809100038E7F8093000382E08093B722F5
:100680008091B3229091B4222CC0833089F18430C0
:1006900009F03CC01092B72280E0F9D2CFDE5ED2E2
:1006A00081E08093000888EC90E080932608909386
:1006B000270880E28093090829C083E08093B7224D
:1006C000809100038160809300038091D3229091F8
:1006D000D42280931803909319038091B5229091AE
:1006E000B622880F991F80932608909327080EC082
:1006F00084E08093B722809100038E7F8093000373
:1007000086E08093000880E49FE1EDCF80910C08A3
:10071000816080930C08FF91EF91BF91AF919F9101
:100720008F917F916F915F914F913F912F910F909A
:100730000FBE0F901F9018951F93CF93DF93182F24
:10074000C4E0D0E02091B82230E02F5F3F4FC217C5
:10075000D30711F4812F01C080E0DADD21972097C3
:1007600089F7DF91CF911F910895CF93C82F63E050
:10077000A4DD81E0E1DF65E08C2F9FDD82E0CF9199
:10078000DBCFCF93DF93D82F63E097DDC5E080E028
:10079000BFDDC150E1F765E08D2F8FDDC5E080E062
:1007A000B7DDC150E1F7DF91CF9108958F929F920D
:1007B000AF92BF92DF92EF92FF920F931F93CF936E
:1007C000DF9300D000D0CDB7DEB780E390E3A0E3A5
:1007D000B0E089839A83AB83BC830091B9221091E6
:1007E000BA22F801A591B4918D909C90F8013296AF
:1007F000E590F490DE2C80E00A3C180791F4940117
:10080000AFEFBFE0B3D220E23EE440E050E08CD254
:10081000A0E2BEE4BAD22FEF3FE040E050E084D245
:10082000490188EE881683E0980658F0C40168EE06
:1008300073E066D24B01075F1F4FF801A590B4909B
:1008400009C0095F1F4FF801A590B49084E688168F
:10085000910430F48AE08816910420F011E003C07E
:1008600010E001C012E08091D522181327C0109328
:10087000D5224AE0BE016F5F7F4FC40190D2812F25
:10088000880F810F880F64E08E0D17DDCE01019671
:10089000A0DC64E083E18E0D10DDC501D2DC24967E
:1008A000CDBFDEBFDF91CF911F910F91FF90EF90F1
:1008B000DF90BF90AF909F908F900895012F0023FD
:1008C000B1F2402F50E041505109842F880F840F1E
:1008D000880F64E08D0DF1DC84E01ADD0150EFCF6C
:1008E000CF93DF931F92CDB7DEB78091B92290915D
:1008F000BA22FC0132962591349129832091B822A5
:1009000021111BC0FC013D9685919491892BD1F05A
:10091000898137DFE091B922F091BA223D96859125
:1009200094918093B9229093BA2223E02093B82225
:10093000FC0132968591949104C021502093B822F5
:10094000898113DF0F90DF91CF910895CF93DF93CB
:100950001F92CDB7DEB78091B9229091BA22FC01E7
:1009600032962591349129832091B8222330D9F4ED
:10097000FC013B9685919491892BD1F0898101DF0F
:10098000E091B922F091BA223B968591949180939F
:10099000B9229093BA2221E02093B822FC0132962A
:1009A0008591949104C02F5F2093B8228981DDDE68
:1009B0000F90DF91CF910895CF92DF92EF92FF9247
:1009C0000F931F93CF93DF93E090B922F090BA2258
:1009D000F701C591D491088119812091B82230E0A6
:1009E000F701359645915491F7013396C590D4900F
:1009F0002115310509F487C0083E93E0190710F06E
:100A00002D5F3F4F882309F43DC02130B1F08EEFB8
:100A1000820F8430A8F460E070E081E090E0FAE0BA
:100A2000DC01FA9FC001FB9F900D11246F5F7F4F87
:100A3000E62FE095E20FA1F705C081E090E002C04B
:100A40008EEE9EEE800F911F4817590730F026302A
:100A5000310519F08883998302C048835983883E01
:100A6000934008F472C0083E134008F06EC081E065
:100A70008093B822F2E0EF0EF11CF701859194917A
:100A800074DE63C02130B1F08EEF820F8430A8F4A1
:100A900040E050E081E090E07AE0DC017A9FC00124
:100AA0007B9F900D11244F5F5F4F642F6095620F05
:100AB000A1F706C021E030E004C02EEE3EEE01C0FA
:100AC0009C01C801B9011CD1C801821B930B672B83
:100AD00019F08883998302C0C882D982883E9340E6
:100AE000A0F5083E134088F182E08093B822F2E03E
:100AF000EF0EF11CF7018591949137DE87EE93E0BC
:100B00008883998322C08823A1F00234110570F4F0
:100B100028EE33E0029FC001039F900D129F900DBD
:100B20001124888399834817590770F4488359839F
:100B30000BC0C80168EE73E0E3D0688379836C155D
:100B40007D0510F4C882D98201DFDF91CF911F911A
:100B50000F91FF90EF90DF90CF9028CECF9310921F
:100B6000B822C8E023DEBCDEC150E1F7C9E0EEDE0A
:100B7000C150E9F7CF910895CF93DF93E0E4F6E019
:100B80008CE78183C0EBD0E08883128AA0E6B6E0D0
:100B90008FEF8C93888380E150968C9390E69583B9
:100BA00094E095838683DF91CF910895E0E4F6E0A9
:100BB00080E1868388E08583089580E1E0E4F6E0C3
:100BC00085830895E0E4F6E098E1968320E22683A9
:100BD000A0E6B6E014968C93258395830895CF9371
:100BE000DF931F92CDB7DEB78983E0DF20E436E0E4
:100BF00090E2F9019683A0E6B6E0898114968C9381
:100C0000958380E185830F90DF91CF91089584E0F3
:100C1000E0E4F6E0868386E08A95F1F700C084E0A0
:100C2000858386E08A95F1F700C086E08A95F1F722
:100C300000C08EEAC7DF81E8C5DF8FEAC3DF81EA43
:100C4000C1DF88ECBFDF86EABDDF88EABBDF8FE368
:100C5000B9DF83EDB7DF80E0B5DF85EDB3DF80EF8F
:100C6000B1DF89EDAFDF82E2ADDF8AEDABDF82E19C
:100C7000A9DF8BEDA7DF80E2A5DF8DE8A3DF80E1B0
:100C8000A1DF8FEA9FDF81E89DDF84E69BCFCF93D2
:100C9000C82F86ED97DFCC2311F081E001C080E002
:100CA000CF9190CF80E28EDF80E08CCF1F93CF93E7
:100CB000DF931F92CDB7DEB7182F82E2698382DF00
:100CC000812F87707FDF6981862F87700F90DF917A
:100CD000CF911F9177CF1F93CF93DF931F92CDB703
:100CE000DEB7182F81E269836DDF812F8F776ADF8E
:100CF0006981862F8F770F90DF91CF911F9162CFFF
:100D0000AA1BBB1B51E107C0AA1FBB1FA617B70731
:100D100010F0A61BB70B881F991F5A95A9F780954D
:100D20009095BC01CD010895A1E21A2EAA1BBB1B10
:100D3000FD010DC0AA1FBB1FEE1FFF1FA217B307A7
:100D4000E407F50720F0A21BB30BE40BF50B661FBD
:100D5000771F881F991F1A9469F760957095809581
:100D600090959B01AC01BD01CF010895A29FB001F8
:100D7000B39FC001A39F700D811D1124911DB29FCF
:100D8000700D811D1124911D0895F0DFA59F900D18
:100D9000B49F900DA49F800D911D11240895BB2731
:100DA000FB015527AA27880F991FAA1FA41710F027
:100DB000A41B83955051B9F7A05DAA3308F0A95D33
:100DC000A193009779F7B111B1931192CB0100C0B3
:100DD000DC01FC01672F71917723E1F7329704C0A2
:100DE0007C916D9370836291AE17BF07C8F308952D
:040DF000F894FFCFA5
:100DF40005100810201003826C1001FE03106C8291
:100E040003C8A8980418A0A0780588502050880525
:100E140038C030C03805186080601804788080F8C5
:100E240003087C880490A8A84803F8100804102834
:100E340028F804F8282810047088887004F810082A
:100E4400F005F808F008F001FE04FE205088028046
:100E54007A01FA04FE1008F00410A8A87803FC1222
:100E6400020470A8A83004708888FE0470888888FA
:100E740004FE88887004708888F802020403808065
:100E84008003040204038282FE030638C003FE8248
:100E94008205C2A2928A86050608F0080605C628BD
:100EA4001028C6053EC038C03E050E30C0300E04C2
:100EB4007E80807E050202FE0202044C929264044B
:100EC400FE1232CC057C82A242BC04FE12120C0437
:100ED4007C82827C05FE041860FE05FE040804FE84
:100EE40004FE80808005FE10284482044080807EB9
:100EF4000382FE8204FE1010FE057C829292F404AA
:100F0400FE12120204FE92928204FE82827C047C0F
:100F140082824404FE92926C05F8141214F8083884
:100F24004492AAAABA2418050402A2120C04824408
:100F340028100428282828041028448201C40144C5
:100F4400054C9292927C056C9292926C050202F28C
:100F54000A06057C92929264055E8A8A8A7205303A
:100F64002824FE2005448292926C0584C2A2928CAD
:100F7400050084FE8000057CA2928A7C03C03806AA
:100F840001800310101001C003103810032810282A
:100F940003824438033844820106056C92AC40A0B5
:100FA40005462610C8C4054854FE54240528FE28C6
:100FB400FE280306000601BE020000058080808032
:100FC4008005FE828282FE05040C1C0C0405203080
:100FD400383020050000000000E321DD21D721D1B5
:100FE40021CB21C821C621C221BC21B621B021AA0E
:100FF40021A821A421A0219C21982196219221900D
:10100400218C21862180217A2174216E216821621C
:10101400215C21562150214E214C21472142213D62
:101024002137212E21282123211E21192114210FAA
:1010340021092104210021FB20F520F020EA20E4ED
:1010440020DF20DA20D420CF20CA20C420BF20B93A
:1010540020B320AD20A720A1209D20992095209188
:10106400208D208A20852080207B20762071206D91
:10107400206820632061205E205920572051204C95
:1010840020472042203D203920342030202B2025A9
:10109400201F201920142010200C200A20062000D4
:1010A400202C01F40132000A03CA002D5354594D77
:0810B400554C41434A412D0057
:00000001FF
